{
  "contractName": "messageTest",
  "abi": [
    {
      "constant": false,
      "inputs": [
        {
          "name": "_userAddress",
          "type": "address"
        },
        {
          "name": "_userEmail",
          "type": "bytes32"
        },
        {
          "name": "_userAge",
          "type": "uint256"
        }
      ],
      "name": "insertUser",
      "outputs": [
        {
          "name": "success",
          "type": "bool"
        }
      ],
      "payable": false,
      "stateMutability": "nonpayable",
      "type": "function"
    },
    {
      "constant": true,
      "inputs": [
        {
          "name": "_userAddress",
          "type": "address"
        }
      ],
      "name": "getUser",
      "outputs": [
        {
          "name": "userEmail",
          "type": "bytes32"
        },
        {
          "name": "userAge",
          "type": "uint256"
        }
      ],
      "payable": false,
      "stateMutability": "view",
      "type": "function"
    },
    {
      "constant": false,
      "inputs": [
        {
          "name": "_userAddress",
          "type": "address"
        },
        {
          "name": "_userEmail",
          "type": "bytes32"
        },
        {
          "name": "_userAge",
          "type": "uint256"
        }
      ],
      "name": "updateUser",
      "outputs": [
        {
          "name": "success",
          "type": "bool"
        }
      ],
      "payable": false,
      "stateMutability": "nonpayable",
      "type": "function"
    }
  ],
  "bytecode": "0x608060405234801561001057600080fd5b5061044e806100206000396000f3fe608060405260043610610057576000357c0100000000000000000000000000000000000000000000000000000000900463ffffffff16806329434e331461005c5780636f77926b146100d9578063cc32588a14610145575b600080fd5b34801561006857600080fd5b506100bf6004803603606081101561007f57600080fd5b81019080803573ffffffffffffffffffffffffffffffffffffffff16906020019092919080359060200190929190803590602001909291905050506101c2565b604051808215151515815260200191505060405180910390f35b3480156100e557600080fd5b50610128600480360360208110156100fc57600080fd5b81019080803573ffffffffffffffffffffffffffffffffffffffff169060200190929190505050610307565b604051808381526020018281526020019250505060405180910390f35b34801561015157600080fd5b506101a86004803603606081101561016857600080fd5b81019080803573ffffffffffffffffffffffffffffffffffffffff169060200190929190803590602001909291908035906020019092919050505061038d565b604051808215151515815260200191505060405180910390f35b6000826000808673ffffffffffffffffffffffffffffffffffffffff1673ffffffffffffffffffffffffffffffffffffffff16815260200190815260200160002060000181905550816000808673ffffffffffffffffffffffffffffffffffffffff1673ffffffffffffffffffffffffffffffffffffffff168152602001908152602001600020600101819055506001808590806001815401808255809150509060018203906000526020600020016000909192909190916101000a81548173ffffffffffffffffffffffffffffffffffffffff021916908373ffffffffffffffffffffffffffffffffffffffff160217905550036000808673ffffffffffffffffffffffffffffffffffffffff1673ffffffffffffffffffffffffffffffffffffffff16815260200190815260200160002060020181905550600190509392505050565b6000806000808473ffffffffffffffffffffffffffffffffffffffff1673ffffffffffffffffffffffffffffffffffffffff168152602001908152602001600020506000808473ffffffffffffffffffffffffffffffffffffffff1673ffffffffffffffffffffffffffffffffffffffff16815260200190815260200160002050915091565b6000826000808673ffffffffffffffffffffffffffffffffffffffff1673ffffffffffffffffffffffffffffffffffffffff16815260200190815260200160002060000181905550816000808673ffffffffffffffffffffffffffffffffffffffff1673ffffffffffffffffffffffffffffffffffffffff16815260200190815260200160002060010181905550939250505056fea165627a7a72305820a3fe865fc8d26682003e80ebc0c4e8092d091b58ce5bd409cc7b804237d7e2480029",
  "source": "pragma solidity >=0.4.0 <0.7.0;\n\n    contract messageTest {\n\n    struct userStruct {\n        bytes32 userEmail;\n        uint userAge;\n        uint index;\n    }\n\n    mapping (address => userStruct) private userStructs;\n    address[] private userIndex;\n\n    function insertUser(\n        address _userAddress,\n        bytes32 _userEmail,\n        uint _userAge) public returns(bool success) {\n\n        userStructs[_userAddress].userEmail = _userEmail;\n        userStructs[_userAddress].userAge = _userAge;\n        userStructs[_userAddress].index = userIndex.push(_userAddress) -1;\n        return true;\n    }\n\n    function getUser\n    (address _userAddress) public view\n    returns(bytes32 userEmail, uint userAge) {\n        userStructs[_userAddress].userEmail;\n        userStructs[_userAddress].userAge;\n    }\n\n\n    function updateUser(address _userAddress, bytes32 _userEmail,uint _userAge)\n    public returns (bool success) {\n        userStructs[_userAddress].userEmail = _userEmail;\n        userStructs[_userAddress].userAge = _userAge;\n\n    }\n\n\n\n\n\n\n}\n\n\n\n\n\n    \n",
  "sourcePath": "/Users/admin/github/CRUD/contracts/CRUD.sol",
  "compiler": {
    "name": "solc",
    "version": "0.5.0+commit.1d4f565a.Emscripten.clang"
  },
  "schemaVersion": "3.0.2",
  "updatedAt": "2019-12-12T17:16:58.271Z",
  "devdoc": {
    "methods": {}
  },
  "userdoc": {
    "methods": {}
  }
}