{
  "contractName": "UserCrud",
  "abi": [
    {
      "anonymous": false,
      "inputs": [
        {
          "indexed": true,
          "internalType": "address",
          "name": "userAddress",
          "type": "address"
        },
        {
          "indexed": false,
          "internalType": "uint256",
          "name": "index",
          "type": "uint256"
        },
        {
          "indexed": false,
          "internalType": "bytes32",
          "name": "userEmail",
          "type": "bytes32"
        },
        {
          "indexed": false,
          "internalType": "uint256",
          "name": "userAge",
          "type": "uint256"
        }
      ],
      "name": "LogNewUser",
      "type": "event",
      "signature": "0x57f7301fe8e6f5b36f73ccce215bfaee0be1dda153d32992eb9ac05da8668611"
    },
    {
      "anonymous": false,
      "inputs": [
        {
          "indexed": true,
          "internalType": "address",
          "name": "userAddress",
          "type": "address"
        },
        {
          "indexed": false,
          "internalType": "uint256",
          "name": "index",
          "type": "uint256"
        },
        {
          "indexed": false,
          "internalType": "bytes32",
          "name": "userEmail",
          "type": "bytes32"
        },
        {
          "indexed": false,
          "internalType": "uint256",
          "name": "userAge",
          "type": "uint256"
        }
      ],
      "name": "LogUpdateUser",
      "type": "event",
      "signature": "0x24659ed7fa20faefd192de94aa063d3b6e668e49b0ca2738ca4d866db1ae9eee"
    },
    {
      "constant": true,
      "inputs": [
        {
          "internalType": "address",
          "name": "userAddress",
          "type": "address"
        }
      ],
      "name": "isUser",
      "outputs": [
        {
          "internalType": "bool",
          "name": "isIndeed",
          "type": "bool"
        }
      ],
      "payable": false,
      "stateMutability": "view",
      "type": "function",
      "signature": "0x4209fff1"
    },
    {
      "constant": false,
      "inputs": [
        {
          "internalType": "address",
          "name": "userAddress",
          "type": "address"
        },
        {
          "internalType": "bytes32",
          "name": "userEmail",
          "type": "bytes32"
        },
        {
          "internalType": "uint256",
          "name": "userAge",
          "type": "uint256"
        }
      ],
      "name": "insertUser",
      "outputs": [
        {
          "internalType": "uint256",
          "name": "index",
          "type": "uint256"
        }
      ],
      "payable": false,
      "stateMutability": "nonpayable",
      "type": "function",
      "signature": "0x29434e33"
    },
    {
      "constant": true,
      "inputs": [
        {
          "internalType": "address",
          "name": "userAddress",
          "type": "address"
        }
      ],
      "name": "getUser",
      "outputs": [
        {
          "internalType": "bytes32",
          "name": "userEmail",
          "type": "bytes32"
        },
        {
          "internalType": "uint256",
          "name": "userAge",
          "type": "uint256"
        },
        {
          "internalType": "uint256",
          "name": "index",
          "type": "uint256"
        }
      ],
      "payable": false,
      "stateMutability": "view",
      "type": "function",
      "signature": "0x6f77926b"
    },
    {
      "constant": false,
      "inputs": [
        {
          "internalType": "address",
          "name": "userAddress",
          "type": "address"
        },
        {
          "internalType": "bytes32",
          "name": "userEmail",
          "type": "bytes32"
        }
      ],
      "name": "updateUserEmail",
      "outputs": [
        {
          "internalType": "bool",
          "name": "success",
          "type": "bool"
        }
      ],
      "payable": false,
      "stateMutability": "nonpayable",
      "type": "function",
      "signature": "0x81f1d75c"
    },
    {
      "constant": false,
      "inputs": [
        {
          "internalType": "address",
          "name": "userAddress",
          "type": "address"
        },
        {
          "internalType": "uint256",
          "name": "userAge",
          "type": "uint256"
        }
      ],
      "name": "updateUserAge",
      "outputs": [
        {
          "internalType": "bool",
          "name": "success",
          "type": "bool"
        }
      ],
      "payable": false,
      "stateMutability": "nonpayable",
      "type": "function",
      "signature": "0x2e071db3"
    },
    {
      "constant": true,
      "inputs": [],
      "name": "getUserCount",
      "outputs": [
        {
          "internalType": "uint256",
          "name": "count",
          "type": "uint256"
        }
      ],
      "payable": false,
      "stateMutability": "view",
      "type": "function",
      "signature": "0xb5cb15f7"
    },
    {
      "constant": true,
      "inputs": [
        {
          "internalType": "uint256",
          "name": "index",
          "type": "uint256"
        }
      ],
      "name": "getUserAtIndex",
      "outputs": [
        {
          "internalType": "address",
          "name": "userAddress",
          "type": "address"
        }
      ],
      "payable": false,
      "stateMutability": "view",
      "type": "function",
      "signature": "0xffcc7bbf"
    }
  ],
  "bytecode": "0x608060405234801561001057600080fd5b506109de806100206000396000f3fe608060405234801561001057600080fd5b506004361061009a576000357c0100000000000000000000000000000000000000000000000000000000900480636f77926b116100785780636f77926b146101cd57806381f1d75c14610233578063b5cb15f714610299578063ffcc7bbf146102b75761009a565b806329434e331461009f5780632e071db31461010b5780634209fff114610171575b600080fd5b6100f5600480360360608110156100b557600080fd5b81019080803573ffffffffffffffffffffffffffffffffffffffff1690602001909291908035906020019092919080359060200190929190505050610325565b6040518082815260200191505060405180910390f35b6101576004803603604081101561012157600080fd5b81019080803573ffffffffffffffffffffffffffffffffffffffff16906020019092919080359060200190929190505050610522565b604051808215151515815260200191505060405180910390f35b6101b36004803603602081101561018757600080fd5b81019080803573ffffffffffffffffffffffffffffffffffffffff169060200190929190505050610666565b604051808215151515815260200191505060405180910390f35b61020f600480360360208110156101e357600080fd5b81019080803573ffffffffffffffffffffffffffffffffffffffff16906020019092919050505061072d565b60405180848152602001838152602001828152602001935050505060405180910390f35b61027f6004803603604081101561024957600080fd5b81019080803573ffffffffffffffffffffffffffffffffffffffff16906020019092919080359060200190929190505050610817565b604051808215151515815260200191505060405180910390f35b6102a161095b565b6040518082815260200191505060405180910390f35b6102e3600480360360208110156102cd57600080fd5b8101908080359060200190929190505050610968565b604051808273ffffffffffffffffffffffffffffffffffffffff1673ffffffffffffffffffffffffffffffffffffffff16815260200191505060405180910390f35b600061033084610666565b1561033a57600080fd5b826000808673ffffffffffffffffffffffffffffffffffffffff1673ffffffffffffffffffffffffffffffffffffffff16815260200190815260200160002060000181905550816000808673ffffffffffffffffffffffffffffffffffffffff1673ffffffffffffffffffffffffffffffffffffffff168152602001908152602001600020600101819055506001808590806001815401808255809150509060018203906000526020600020016000909192909190916101000a81548173ffffffffffffffffffffffffffffffffffffffff021916908373ffffffffffffffffffffffffffffffffffffffff160217905550036000808673ffffffffffffffffffffffffffffffffffffffff1673ffffffffffffffffffffffffffffffffffffffff168152602001908152602001600020600201819055508373ffffffffffffffffffffffffffffffffffffffff167f57f7301fe8e6f5b36f73ccce215bfaee0be1dda153d32992eb9ac05da86686116000808773ffffffffffffffffffffffffffffffffffffffff1673ffffffffffffffffffffffffffffffffffffffff16815260200190815260200160002060020154858560405180848152602001838152602001828152602001935050505060405180910390a2600180805490500390509392505050565b600061052d83610666565b61053657600080fd5b816000808573ffffffffffffffffffffffffffffffffffffffff1673ffffffffffffffffffffffffffffffffffffffff168152602001908152602001600020600101819055508273ffffffffffffffffffffffffffffffffffffffff167f24659ed7fa20faefd192de94aa063d3b6e668e49b0ca2738ca4d866db1ae9eee6000808673ffffffffffffffffffffffffffffffffffffffff1673ffffffffffffffffffffffffffffffffffffffff168152602001908152602001600020600201546000808773ffffffffffffffffffffffffffffffffffffffff1673ffffffffffffffffffffffffffffffffffffffff168152602001908152602001600020600001548560405180848152602001838152602001828152602001935050505060405180910390a26001905092915050565b600080600180549050141561067e5760009050610728565b8173ffffffffffffffffffffffffffffffffffffffff1660016000808573ffffffffffffffffffffffffffffffffffffffff1673ffffffffffffffffffffffffffffffffffffffff16815260200190815260200160002060020154815481106106e357fe5b9060005260206000200160009054906101000a900473ffffffffffffffffffffffffffffffffffffffff1673ffffffffffffffffffffffffffffffffffffffff161490505b919050565b600080600061073b84610666565b61074457600080fd5b6000808573ffffffffffffffffffffffffffffffffffffffff1673ffffffffffffffffffffffffffffffffffffffff168152602001908152602001600020600001546000808673ffffffffffffffffffffffffffffffffffffffff1673ffffffffffffffffffffffffffffffffffffffff168152602001908152602001600020600101546000808773ffffffffffffffffffffffffffffffffffffffff1673ffffffffffffffffffffffffffffffffffffffff168152602001908152602001600020600201549250925092509193909250565b600061082283610666565b61082b57600080fd5b816000808573ffffffffffffffffffffffffffffffffffffffff1673ffffffffffffffffffffffffffffffffffffffff168152602001908152602001600020600001819055508273ffffffffffffffffffffffffffffffffffffffff167f24659ed7fa20faefd192de94aa063d3b6e668e49b0ca2738ca4d866db1ae9eee6000808673ffffffffffffffffffffffffffffffffffffffff1673ffffffffffffffffffffffffffffffffffffffff16815260200190815260200160002060020154846000808873ffffffffffffffffffffffffffffffffffffffff1673ffffffffffffffffffffffffffffffffffffffff1681526020019081526020016000206001015460405180848152602001838152602001828152602001935050505060405180910390a26001905092915050565b6000600180549050905090565b60006001828154811061097757fe5b9060005260206000200160009054906101000a900473ffffffffffffffffffffffffffffffffffffffff16905091905056fea265627a7a72315820a05d0926068b7f39dc7f15f210cfbaca2f051ac4b2b5660624e14642bc8666aa64736f6c634300050e0032",
  "source": "pragma solidity >=0.4.0 <0.7.0;\n\n    contract UserCrud {\n\n      struct UserStruct {\n        bytes32 userEmail;\n        uint userAge;\n        uint index;\n      }\n\n      mapping(address => UserStruct) private userStructs;\n      address[] private userIndex;\n\n      event LogNewUser(address indexed userAddress, uint index, bytes32 userEmail, uint userAge);\n      event LogUpdateUser(address indexed userAddress, uint index, bytes32 userEmail, uint userAge);\n\n      function isUser(address userAddress) public view returns(bool isIndeed) {\n        if(userIndex.length == 0) return false;\n        return (userIndex[userStructs[userAddress].index] == userAddress);\n      }\n\n      function insertUser(address userAddress, bytes32 userEmail, uint userAge) public returns(uint index) {\n        if(isUser(userAddress)) revert();\n        userStructs[userAddress].userEmail = userEmail;\n        userStructs[userAddress].userAge = userAge;\n        userStructs[userAddress].index = userIndex.push(userAddress) - 1;\n          emit LogNewUser(\n            userAddress,\n            userStructs[userAddress].index,\n            userEmail,\n            userAge);\n\n          return userIndex.length - 1;\n      }\n\n      function getUser(address userAddress) public view returns(bytes32 userEmail, uint userAge, uint index) {\n        if(!isUser(userAddress)) revert();\n        return(\n        userStructs[userAddress].userEmail,\n        userStructs[userAddress].userAge,\n        userStructs[userAddress].index);\n\n      }\n\n      function updateUserEmail(address userAddress, bytes32 userEmail) public returns(bool success) {\n        if(!isUser(userAddress)) revert();\n        userStructs[userAddress].userEmail = userEmail;\n        emit LogUpdateUser(\n          userAddress,\n          userStructs[userAddress].index,\n          userEmail,\n          userStructs[userAddress].userAge);\n          return true;\n      }\n\n      function updateUserAge(address userAddress, uint userAge) public returns(bool success) {\n        if(!isUser(userAddress)) revert();\n        userStructs[userAddress].userAge = userAge;\n        emit LogUpdateUser(\n          userAddress,\n          userStructs[userAddress].index,\n          userStructs[userAddress].userEmail,\n          userAge);\n          return true;\n      }\n\n      function getUserCount() public view returns(uint count) {\n        return userIndex.length;\n      }\n\n      function getUserAtIndex(uint index) public view returns (address userAddress) {\n        return(userIndex[index]);\n      }\n    }\n",
  "sourcePath": "/Users/admin/github/CRUD/contracts/UserCrud.sol",
  "compiler": {
    "name": "solc",
    "version": "0.5.14+commit.01f1aaa4.Emscripten.clang"
  },
  "schemaVersion": "3.0.2",
  "updatedAt": "2019-12-16T17:14:19.158Z",
  "devdoc": {
    "methods": {}
  },
  "userdoc": {
    "methods": {}
  }
}